{
    "abi": [
        {
            "type": "function",
            "name": "decrement",
            "inputs": [],
            "outputs": [],
            "stateMutability": "nonpayable"
        },
        {
            "type": "function",
            "name": "increment",
            "inputs": [],
            "outputs": [],
            "stateMutability": "nonpayable"
        },
        {
            "type": "function",
            "name": "number",
            "inputs": [],
            "outputs": [
                {
                    "name": "",
                    "type": "uint256",
                    "internalType": "uint256"
                }
            ],
            "stateMutability": "view"
        },
        {
            "type": "function",
            "name": "setNumber",
            "inputs": [
                {
                    "name": "newNumber",
                    "type": "uint256",
                    "internalType": "uint256"
                }
            ],
            "outputs": [],
            "stateMutability": "nonpayable"
        }
    ],
    "bytecode": {
        "object": "0x608060405234801561001057600080fd5b506101f4806100206000396000f3fe608060405234801561001057600080fd5b506004361061004c5760003560e01c80632baeceb7146100515780633fb5c1cb1461005b5780638381f58a1461006e578063d09de08a14610089575b600080fd5b610059610091565b005b61005961006936600461015f565b600055565b61007760005481565b60405190815260200160405180910390f35b6100596100fd565b60008054116100e75760405162461bcd60e51b815260206004820152601f60248201527f44656372656d656e7420776f756c6420636175736520756e646572666c6f770060448201526064015b60405180910390fd5b6000805490806100f68361018e565b9190505550565b600019600054106101505760405162461bcd60e51b815260206004820152601e60248201527f496e6372656d656e7420776f756c64206361757365206f766572666c6f77000060448201526064016100de565b6000805490806100f6836101a5565b60006020828403121561017157600080fd5b5035919050565b634e487b7160e01b600052601160045260246000fd5b60008161019d5761019d610178565b506000190190565b6000600182016101b7576101b7610178565b506001019056fea2646970667358221220c556acbd48e9ef789021004ed81e9db4c68d8157c2173713918196ded89d66c664736f6c63430008140033",
        "linkReferences": {}
    },
    "methodIdentifiers": {
        "decrement()": "2baeceb7",
        "increment()": "d09de08a",
        "number()": "8381f58a",
        "setNumber(uint256)": "3fb5c1cb"
    },
    "id": 23
}